{
  "contracts/LZeroRecipient.sol": {
    "LZeroRecipient": {
      "abi": [
        {
          "inputs": [
            {
              "internalType": "address",
              "name": "_endpoint",
              "type": "address"
            },
            {
              "internalType": "address",
              "name": "_owner",
              "type": "address"
            }
          ],
          "stateMutability": "nonpayable",
          "type": "constructor"
        },
        {
          "inputs": [],
          "name": "InvalidDelegate",
          "type": "error"
        },
        {
          "inputs": [],
          "name": "InvalidEndpointCall",
          "type": "error"
        },
        {
          "inputs": [
            {
              "internalType": "uint32",
              "name": "eid",
              "type": "uint32"
            }
          ],
          "name": "NoPeer",
          "type": "error"
        },
        {
          "inputs": [
            {
              "internalType": "address",
              "name": "addr",
              "type": "address"
            }
          ],
          "name": "OnlyEndpoint",
          "type": "error"
        },
        {
          "inputs": [
            {
              "internalType": "uint32",
              "name": "eid",
              "type": "uint32"
            },
            {
              "internalType": "bytes32",
              "name": "sender",
              "type": "bytes32"
            }
          ],
          "name": "OnlyPeer",
          "type": "error"
        },
        {
          "inputs": [
            {
              "internalType": "address",
              "name": "owner",
              "type": "address"
            }
          ],
          "name": "OwnableInvalidOwner",
          "type": "error"
        },
        {
          "inputs": [
            {
              "internalType": "address",
              "name": "account",
              "type": "address"
            }
          ],
          "name": "OwnableUnauthorizedAccount",
          "type": "error"
        },
        {
          "anonymous": false,
          "inputs": [
            {
              "indexed": false,
              "internalType": "uint32",
              "name": "senderEid",
              "type": "uint32"
            },
            {
              "indexed": false,
              "internalType": "bytes32",
              "name": "sender",
              "type": "bytes32"
            }
          ],
          "name": "MessageReceived",
          "type": "event"
        },
        {
          "anonymous": false,
          "inputs": [
            {
              "indexed": true,
              "internalType": "address",
              "name": "previousOwner",
              "type": "address"
            },
            {
              "indexed": true,
              "internalType": "address",
              "name": "newOwner",
              "type": "address"
            }
          ],
          "name": "OwnershipTransferred",
          "type": "event"
        },
        {
          "anonymous": false,
          "inputs": [
            {
              "indexed": false,
              "internalType": "uint32",
              "name": "eid",
              "type": "uint32"
            },
            {
              "indexed": false,
              "internalType": "bytes32",
              "name": "peer",
              "type": "bytes32"
            }
          ],
          "name": "PeerSet",
          "type": "event"
        },
        {
          "inputs": [
            {
              "components": [
                {
                  "internalType": "uint32",
                  "name": "srcEid",
                  "type": "uint32"
                },
                {
                  "internalType": "bytes32",
                  "name": "sender",
                  "type": "bytes32"
                },
                {
                  "internalType": "uint64",
                  "name": "nonce",
                  "type": "uint64"
                }
              ],
              "internalType": "struct Origin",
              "name": "origin",
              "type": "tuple"
            }
          ],
          "name": "allowInitializePath",
          "outputs": [
            {
              "internalType": "bool",
              "name": "",
              "type": "bool"
            }
          ],
          "stateMutability": "view",
          "type": "function"
        },
        {
          "inputs": [],
          "name": "composeMsgSender",
          "outputs": [
            {
              "internalType": "address",
              "name": "sender",
              "type": "address"
            }
          ],
          "stateMutability": "view",
          "type": "function"
        },
        {
          "inputs": [],
          "name": "endpoint",
          "outputs": [
            {
              "internalType": "contract ILayerZeroEndpointV2",
              "name": "",
              "type": "address"
            }
          ],
          "stateMutability": "view",
          "type": "function"
        },
        {
          "inputs": [],
          "name": "governorBravoAddress",
          "outputs": [
            {
              "internalType": "address",
              "name": "",
              "type": "address"
            }
          ],
          "stateMutability": "view",
          "type": "function"
        },
        {
          "inputs": [
            {
              "components": [
                {
                  "internalType": "uint32",
                  "name": "srcEid",
                  "type": "uint32"
                },
                {
                  "internalType": "bytes32",
                  "name": "sender",
                  "type": "bytes32"
                },
                {
                  "internalType": "uint64",
                  "name": "nonce",
                  "type": "uint64"
                }
              ],
              "internalType": "struct Origin",
              "name": "_origin",
              "type": "tuple"
            },
            {
              "internalType": "bytes32",
              "name": "_guid",
              "type": "bytes32"
            },
            {
              "internalType": "bytes",
              "name": "_message",
              "type": "bytes"
            },
            {
              "internalType": "address",
              "name": "_executor",
              "type": "address"
            },
            {
              "internalType": "bytes",
              "name": "_extraData",
              "type": "bytes"
            }
          ],
          "name": "lzReceive",
          "outputs": [],
          "stateMutability": "payable",
          "type": "function"
        },
        {
          "inputs": [
            {
              "internalType": "uint32",
              "name": "",
              "type": "uint32"
            },
            {
              "internalType": "bytes32",
              "name": "",
              "type": "bytes32"
            }
          ],
          "name": "nextNonce",
          "outputs": [
            {
              "internalType": "uint64",
              "name": "nonce",
              "type": "uint64"
            }
          ],
          "stateMutability": "view",
          "type": "function"
        },
        {
          "inputs": [],
          "name": "oAppVersion",
          "outputs": [
            {
              "internalType": "uint64",
              "name": "senderVersion",
              "type": "uint64"
            },
            {
              "internalType": "uint64",
              "name": "receiverVersion",
              "type": "uint64"
            }
          ],
          "stateMutability": "view",
          "type": "function"
        },
        {
          "inputs": [],
          "name": "owner",
          "outputs": [
            {
              "internalType": "address",
              "name": "",
              "type": "address"
            }
          ],
          "stateMutability": "view",
          "type": "function"
        },
        {
          "inputs": [
            {
              "internalType": "uint32",
              "name": "eid",
              "type": "uint32"
            }
          ],
          "name": "peers",
          "outputs": [
            {
              "internalType": "bytes32",
              "name": "peer",
              "type": "bytes32"
            }
          ],
          "stateMutability": "view",
          "type": "function"
        },
        {
          "inputs": [],
          "name": "renounceOwnership",
          "outputs": [],
          "stateMutability": "nonpayable",
          "type": "function"
        },
        {
          "inputs": [
            {
              "internalType": "address",
              "name": "_delegate",
              "type": "address"
            }
          ],
          "name": "setDelegate",
          "outputs": [],
          "stateMutability": "nonpayable",
          "type": "function"
        },
        {
          "inputs": [
            {
              "internalType": "uint32",
              "name": "_eid",
              "type": "uint32"
            },
            {
              "internalType": "bytes32",
              "name": "_peer",
              "type": "bytes32"
            }
          ],
          "name": "setPeer",
          "outputs": [],
          "stateMutability": "nonpayable",
          "type": "function"
        },
        {
          "inputs": [
            {
              "internalType": "address",
              "name": "newOwner",
              "type": "address"
            }
          ],
          "name": "transferOwnership",
          "outputs": [],
          "stateMutability": "nonpayable",
          "type": "function"
        }
      ],
      "devdoc": {
        "errors": {
          "OwnableInvalidOwner(address)": [
            {
              "details": "The owner is not a valid owner account. (eg. `address(0)`)"
            }
          ],
          "OwnableUnauthorizedAccount(address)": [
            {
              "details": "The caller account is not authorized to perform an operation."
            }
          ]
        },
        "events": {
          "MessageReceived(uint32,bytes32)": {
            "params": {
              "sender": "The sending OApp's address.",
              "senderEid": "What LayerZero Endpoint sent the message."
            }
          }
        },
        "kind": "dev",
        "methods": {
          "allowInitializePath((uint32,bytes32,uint64))": {
            "details": "This indicates to the endpoint that the OApp has enabled msgs for this particular path to be received.This defaults to assuming if a peer has been set, its initialized. Can be overridden by the OApp if there is other logic to determine this.",
            "params": {
              "origin": "The origin information containing the source endpoint and sender address."
            },
            "returns": {
              "_0": "Whether the path has been initialized."
            }
          },
          "composeMsgSender()": {
            "details": "Applications can optionally choose to implement a separate composeMsg sender that is NOT the bridging layer.The default sender IS the OApp implementer.",
            "returns": {
              "sender": "The address responsible for 'sending' composeMsg's to the Endpoint."
            }
          },
          "constructor": {
            "params": {
              "_endpoint": "The endpoint address.",
              "_owner": "The OApp child contract owner."
            }
          },
          "lzReceive((uint32,bytes32,uint64),bytes32,bytes,address,bytes)": {
            "details": "Entry point for receiving messages or packets from the endpoint.Entry point for receiving msg/packet from the LayerZero endpoint.",
            "params": {
              "_executor": "The address of the executor for the received message.",
              "_extraData": "Additional arbitrary data provided by the corresponding executor.",
              "_guid": "The unique identifier for the received LayerZero message.",
              "_message": "The payload of the received message.",
              "_origin": "The origin information containing the source endpoint and sender address.  - srcEid: The source chain endpoint ID.  - sender: The sender address on the src chain.  - nonce: The nonce of the message."
            }
          },
          "nextNonce(uint32,bytes32)": {
            "details": "_srcEid The source endpoint ID._sender The sender address.The path nonce starts from 1. If 0 is returned it means that there is NO nonce ordered enforcement.Is required by the off-chain executor to determine the OApp expects msg execution is ordered.This is also enforced by the OApp.By default this is NOT enabled. ie. nextNonce is hardcoded to return 0.",
            "returns": {
              "nonce": "The next nonce."
            }
          },
          "oAppVersion()": {
            "details": "Providing 0 as the default for OAppSender version. Indicates that the OAppSender is not implemented. ie. this is a RECEIVE only OApp.If the OApp uses both OAppSender and OAppReceiver, then this needs to be override returning the correct versions.",
            "returns": {
              "receiverVersion": "The version of the OAppReceiver.sol contract.",
              "senderVersion": "The version of the OAppSender.sol contract."
            }
          },
          "owner()": {
            "details": "Returns the address of the current owner."
          },
          "renounceOwnership()": {
            "details": "Leaves the contract without owner. It will not be possible to call `onlyOwner` functions. Can only be called by the current owner. NOTE: Renouncing ownership will leave the contract without an owner, thereby disabling any functionality that is only available to the owner."
          },
          "setDelegate(address)": {
            "details": "Only the owner/admin of the OApp can call this function.Provides the ability for a delegate to set configs, on behalf of the OApp, directly on the Endpoint contract.",
            "params": {
              "_delegate": "The address of the delegate to be set."
            }
          },
          "setPeer(uint32,bytes32)": {
            "details": "Only the owner/admin of the OApp can call this function.Indicates that the peer is trusted to send LayerZero messages to this OApp.Set this to bytes32(0) to remove the peer address.Peer is a bytes32 to accommodate non-evm chains.",
            "params": {
              "_eid": "The endpoint ID.",
              "_peer": "The address of the peer to be associated with the corresponding endpoint."
            }
          },
          "transferOwnership(address)": {
            "details": "Transfers ownership of the contract to a new account (`newOwner`). Can only be called by the current owner."
          }
        },
        "version": 1
      },
      "evm": {
        "bytecode": {
          "linkReferences": {},
          "object": "60a0604052600280546001600160a01b031916739bbe1c9cbec5147992869424f645988549de5c3517905534801561003657600080fd5b50604051610fb5380380610fb583398101604081905261005591610188565b8181338061007d57604051631e4fbdf760e01b81526000600482015260240160405180910390fd5b6100868161011c565b506001600160a01b0380831660805281166100b457604051632d618d8160e21b815260040160405180910390fd5b60805160405163ca5eb5e160e01b81526001600160a01b0383811660048301529091169063ca5eb5e190602401600060405180830381600087803b1580156100fb57600080fd5b505af115801561010f573d6000803e3d6000fd5b50505050505050506101bb565b600080546001600160a01b038381166001600160a01b0319831681178455604051919092169283917f8be0079c531659141344cd1fd0a4f28419497f9722a3daafe3b4186f6b6457e09190a35050565b80516001600160a01b038116811461018357600080fd5b919050565b6000806040838503121561019b57600080fd5b6101a48361016c565b91506101b26020840161016c565b90509250929050565b608051610dd16101e460003960008181610135015281816102be01526104140152610dd16000f3fe6080604052600436106100c25760003560e01c806384a6b60b1161007f578063bb0b6a5311610059578063bb0b6a5314610211578063ca5eb5e11461024c578063f2fde38b1461026c578063ff7bd03d1461028c57600080fd5b806384a6b60b146101c05780638da5cb5b146101e0578063b92d0eff146101fe57600080fd5b806313137d65146100c757806317442b70146100dc5780633400288b146101035780635e280f1114610123578063715018a61461016f5780637d25a05e14610184575b600080fd5b6100da6100d5366004610731565b6102bc565b005b3480156100e857600080fd5b50604080516000815260016020820152015b60405180910390f35b34801561010f57600080fd5b506100da61011e3660046107e4565b61037c565b34801561012f57600080fd5b506101577f000000000000000000000000000000000000000000000000000000000000000081565b6040516001600160a01b0390911681526020016100fa565b34801561017b57600080fd5b506100da6103d9565b34801561019057600080fd5b506101a761019f3660046107e4565b600092915050565b60405167ffffffffffffffff90911681526020016100fa565b3480156101cc57600080fd5b50600254610157906001600160a01b031681565b3480156101ec57600080fd5b506000546001600160a01b0316610157565b34801561020a57600080fd5b5030610157565b34801561021d57600080fd5b5061023e61022c36600461080e565b60016020526000908152604090205481565b6040519081526020016100fa565b34801561025857600080fd5b506100da610267366004610830565b6103ed565b34801561027857600080fd5b506100da610287366004610830565b610473565b34801561029857600080fd5b506102ac6102a736600461084b565b6104b1565b60405190151581526020016100fa565b7f00000000000000000000000000000000000000000000000000000000000000006001600160a01b0316331461030c576040516391ac5e4f60e01b81523360048201526024015b60405180910390fd5b6020870180359061032690610321908a61080e565b6104e7565b1461036457610338602088018861080e565b60405163309afaf360e21b815263ffffffff909116600482015260208801356024820152604401610303565b61037387878787878787610529565b50505050505050565b610384610637565b63ffffffff8216600081815260016020908152604091829020849055815192835282018390527f238399d427b947898edb290f5ff0f9109849b1c3ba196a42e35f00c50a54b98b910160405180910390a15050565b6103e1610637565b6103eb6000610664565b565b6103f5610637565b60405163ca5eb5e160e01b81526001600160a01b0382811660048301527f0000000000000000000000000000000000000000000000000000000000000000169063ca5eb5e190602401600060405180830381600087803b15801561045857600080fd5b505af115801561046c573d6000803e3d6000fd5b5050505050565b61047b610637565b6001600160a01b0381166104a557604051631e4fbdf760e01b815260006004820152602401610303565b6104ae81610664565b50565b60006020820180359060019083906104c9908661080e565b63ffffffff1681526020810191909152604001600020541492915050565b63ffffffff8116600090815260016020526040812054806105235760405163f6ff4fb760e01b815263ffffffff84166004820152602401610303565b92915050565b60008080808061053b898b018b610b34565b939850919650945092509050600061055660208e018e61080e565b905060008d6020013590507fdb969a2247d6439324c4a87f35c4c2913313573a4ab727785dff3cd99749fccd82826040516105a392919063ffffffff929092168252602082015260400190565b60405180910390a1600254604051636d4ab48d60e11b81526001600160a01b039091169063da95691a906105e3908a908a908a908a908a90600401610ce2565b6020604051808303816000875af1158015610602573d6000803e3d6000fd5b505050506040513d601f19601f820116820180604052508101906106269190610d82565b505050505050505050505050505050565b6000546001600160a01b031633146103eb5760405163118cdaa760e01b8152336004820152602401610303565b600080546001600160a01b038381166001600160a01b0319831681178455604051919092169283917f8be0079c531659141344cd1fd0a4f28419497f9722a3daafe3b4186f6b6457e09190a35050565b6000606082840312156106c657600080fd5b50919050565b60008083601f8401126106de57600080fd5b50813567ffffffffffffffff8111156106f657600080fd5b60208301915083602082850101111561070e57600080fd5b9250929050565b80356001600160a01b038116811461072c57600080fd5b919050565b600080600080600080600060e0888a03121561074c57600080fd5b61075689896106b4565b965060608801359550608088013567ffffffffffffffff8082111561077a57600080fd5b6107868b838c016106cc565b909750955085915061079a60a08b01610715565b945060c08a01359150808211156107b057600080fd5b506107bd8a828b016106cc565b989b979a50959850939692959293505050565b803563ffffffff8116811461072c57600080fd5b600080604083850312156107f757600080fd5b610800836107d0565b946020939093013593505050565b60006020828403121561082057600080fd5b610829826107d0565b9392505050565b60006020828403121561084257600080fd5b61082982610715565b60006060828403121561085d57600080fd5b61082983836106b4565b634e487b7160e01b600052604160045260246000fd5b604051601f8201601f1916810167ffffffffffffffff811182821017156108a6576108a6610867565b604052919050565b600067ffffffffffffffff8211156108c8576108c8610867565b5060051b60200190565b600082601f8301126108e357600080fd5b813560206108f86108f3836108ae565b61087d565b8083825260208201915060208460051b87010193508684111561091a57600080fd5b602086015b8481101561093d5761093081610715565b835291830191830161091f565b509695505050505050565b600082601f83011261095957600080fd5b813560206109696108f3836108ae565b8083825260208201915060208460051b87010193508684111561098b57600080fd5b602086015b8481101561093d5780358352918301918301610990565b600067ffffffffffffffff8311156109c1576109c1610867565b6109d4601f8401601f191660200161087d565b90508281528383830111156109e857600080fd5b828260208301376000602084830101529392505050565b600082601f830112610a1057600080fd5b610829838335602085016109a7565b600082601f830112610a3057600080fd5b81356020610a406108f3836108ae565b82815260059290921b84018101918181019086841115610a5f57600080fd5b8286015b8481101561093d57803567ffffffffffffffff811115610a835760008081fd5b610a918986838b01016109ff565b845250918301918301610a63565b600082601f830112610ab057600080fd5b81356020610ac06108f3836108ae565b82815260059290921b84018101918181019086841115610adf57600080fd5b8286015b8481101561093d57803567ffffffffffffffff811115610b035760008081fd5b8701603f81018913610b155760008081fd5b610b268986830135604084016109a7565b845250918301918301610ae3565b600080600080600060a08688031215610b4c57600080fd5b853567ffffffffffffffff80821115610b6457600080fd5b610b7089838a016108d2565b96506020880135915080821115610b8657600080fd5b610b9289838a01610948565b95506040880135915080821115610ba857600080fd5b610bb489838a01610a1f565b94506060880135915080821115610bca57600080fd5b610bd689838a01610a9f565b93506080880135915080821115610bec57600080fd5b50610bf9888289016109ff565b9150509295509295909350565b60008151808452602080850194506020840160005b83811015610c3757815187529582019590820190600101610c1b565b509495945050505050565b6000815180845260005b81811015610c6857602081850181015186830182015201610c4c565b506000602082860101526020601f19601f83011685010191505092915050565b60008282518085526020808601955060208260051b8401016020860160005b84811015610cd557601f19868403018952610cc3838351610c42565b98840198925090830190600101610ca7565b5090979650505050505050565b60a0808252865190820181905260009060209060c0840190828a01845b82811015610d245781516001600160a01b031684529284019290840190600101610cff565b5050508381036020850152610d398189610c06565b9150508281036040840152610d4e8187610c88565b90508281036060840152610d628186610c88565b90508281036080840152610d768185610c42565b98975050505050505050565b600060208284031215610d9457600080fd5b505191905056fea2646970667358221220169bcdb4c995e5a7f87f5dce547faa01324b3fa3b292a4ed8536679d78a853c364736f6c63430008160033",
          "opcodes": "PUSH1 0xA0 PUSH1 0x40 MSTORE PUSH1 0x2 DUP1 SLOAD PUSH1 0x1 PUSH1 0x1 PUSH1 0xA0 SHL SUB NOT AND PUSH20 0x9BBE1C9CBEC5147992869424F645988549DE5C35 OR SWAP1 SSTORE CALLVALUE DUP1 ISZERO PUSH2 0x36 JUMPI PUSH1 0x0 DUP1 REVERT JUMPDEST POP PUSH1 0x40 MLOAD PUSH2 0xFB5 CODESIZE SUB DUP1 PUSH2 0xFB5 DUP4 CODECOPY DUP2 ADD PUSH1 0x40 DUP2 SWAP1 MSTORE PUSH2 0x55 SWAP2 PUSH2 0x188 JUMP JUMPDEST DUP2 DUP2 CALLER DUP1 PUSH2 0x7D JUMPI PUSH1 0x40 MLOAD PUSH4 0x1E4FBDF7 PUSH1 0xE0 SHL DUP2 MSTORE PUSH1 0x0 PUSH1 0x4 DUP3 ADD MSTORE PUSH1 0x24 ADD PUSH1 0x40 MLOAD DUP1 SWAP2 SUB SWAP1 REVERT JUMPDEST PUSH2 0x86 DUP2 PUSH2 0x11C JUMP JUMPDEST POP PUSH1 0x1 PUSH1 0x1 PUSH1 0xA0 SHL SUB DUP1 DUP4 AND PUSH1 0x80 MSTORE DUP2 AND PUSH2 0xB4 JUMPI PUSH1 0x40 MLOAD PUSH4 0x2D618D81 PUSH1 0xE2 SHL DUP2 MSTORE PUSH1 0x4 ADD PUSH1 0x40 MLOAD DUP1 SWAP2 SUB SWAP1 REVERT JUMPDEST PUSH1 0x80 MLOAD PUSH1 0x40 MLOAD PUSH4 0xCA5EB5E1 PUSH1 0xE0 SHL DUP2 MSTORE PUSH1 0x1 PUSH1 0x1 PUSH1 0xA0 SHL SUB DUP4 DUP2 AND PUSH1 0x4 DUP4 ADD MSTORE SWAP1 SWAP2 AND SWAP1 PUSH4 0xCA5EB5E1 SWAP1 PUSH1 0x24 ADD PUSH1 0x0 PUSH1 0x40 MLOAD DUP1 DUP4 SUB DUP2 PUSH1 0x0 DUP8 DUP1 EXTCODESIZE ISZERO DUP1 ISZERO PUSH2 0xFB JUMPI PUSH1 0x0 DUP1 REVERT JUMPDEST POP GAS CALL ISZERO DUP1 ISZERO PUSH2 0x10F JUMPI RETURNDATASIZE PUSH1 0x0 DUP1 RETURNDATACOPY RETURNDATASIZE PUSH1 0x0 REVERT JUMPDEST POP POP POP POP POP POP POP POP PUSH2 0x1BB JUMP JUMPDEST PUSH1 0x0 DUP1 SLOAD PUSH1 0x1 PUSH1 0x1 PUSH1 0xA0 SHL SUB DUP4 DUP2 AND PUSH1 0x1 PUSH1 0x1 PUSH1 0xA0 SHL SUB NOT DUP4 AND DUP2 OR DUP5 SSTORE PUSH1 0x40 MLOAD SWAP2 SWAP1 SWAP3 AND SWAP3 DUP4 SWAP2 PUSH32 0x8BE0079C531659141344CD1FD0A4F28419497F9722A3DAAFE3B4186F6B6457E0 SWAP2 SWAP1 LOG3 POP POP JUMP JUMPDEST DUP1 MLOAD PUSH1 0x1 PUSH1 0x1 PUSH1 0xA0 SHL SUB DUP2 AND DUP2 EQ PUSH2 0x183 JUMPI PUSH1 0x0 DUP1 REVERT JUMPDEST SWAP2 SWAP1 POP JUMP JUMPDEST PUSH1 0x0 DUP1 PUSH1 0x40 DUP4 DUP6 SUB SLT ISZERO PUSH2 0x19B JUMPI PUSH1 0x0 DUP1 REVERT JUMPDEST PUSH2 0x1A4 DUP4 PUSH2 0x16C JUMP JUMPDEST SWAP2 POP PUSH2 0x1B2 PUSH1 0x20 DUP5 ADD PUSH2 0x16C JUMP JUMPDEST SWAP1 POP SWAP3 POP SWAP3 SWAP1 POP JUMP JUMPDEST PUSH1 0x80 MLOAD PUSH2 0xDD1 PUSH2 0x1E4 PUSH1 0x0 CODECOPY PUSH1 0x0 DUP2 DUP2 PUSH2 0x135 ADD MSTORE DUP2 DUP2 PUSH2 0x2BE ADD MSTORE PUSH2 0x414 ADD MSTORE PUSH2 0xDD1 PUSH1 0x0 RETURN INVALID PUSH1 0x80 PUSH1 0x40 MSTORE PUSH1 0x4 CALLDATASIZE LT PUSH2 0xC2 JUMPI PUSH1 0x0 CALLDATALOAD PUSH1 0xE0 SHR DUP1 PUSH4 0x84A6B60B GT PUSH2 0x7F JUMPI DUP1 PUSH4 0xBB0B6A53 GT PUSH2 0x59 JUMPI DUP1 PUSH4 0xBB0B6A53 EQ PUSH2 0x211 JUMPI DUP1 PUSH4 0xCA5EB5E1 EQ PUSH2 0x24C JUMPI DUP1 PUSH4 0xF2FDE38B EQ PUSH2 0x26C JUMPI DUP1 PUSH4 0xFF7BD03D EQ PUSH2 0x28C JUMPI PUSH1 0x0 DUP1 REVERT JUMPDEST DUP1 PUSH4 0x84A6B60B EQ PUSH2 0x1C0 JUMPI DUP1 PUSH4 0x8DA5CB5B EQ PUSH2 0x1E0 JUMPI DUP1 PUSH4 0xB92D0EFF EQ PUSH2 0x1FE JUMPI PUSH1 0x0 DUP1 REVERT JUMPDEST DUP1 PUSH4 0x13137D65 EQ PUSH2 0xC7 JUMPI DUP1 PUSH4 0x17442B70 EQ PUSH2 0xDC JUMPI DUP1 PUSH4 0x3400288B EQ PUSH2 0x103 JUMPI DUP1 PUSH4 0x5E280F11 EQ PUSH2 0x123 JUMPI DUP1 PUSH4 0x715018A6 EQ PUSH2 0x16F JUMPI DUP1 PUSH4 0x7D25A05E EQ PUSH2 0x184 JUMPI JUMPDEST PUSH1 0x0 DUP1 REVERT JUMPDEST PUSH2 0xDA PUSH2 0xD5 CALLDATASIZE PUSH1 0x4 PUSH2 0x731 JUMP JUMPDEST PUSH2 0x2BC JUMP JUMPDEST STOP JUMPDEST CALLVALUE DUP1 ISZERO PUSH2 0xE8 JUMPI PUSH1 0x0 DUP1 REVERT JUMPDEST POP PUSH1 0x40 DUP1 MLOAD PUSH1 0x0 DUP2 MSTORE PUSH1 0x1 PUSH1 0x20 DUP3 ADD MSTORE ADD JUMPDEST PUSH1 0x40 MLOAD DUP1 SWAP2 SUB SWAP1 RETURN JUMPDEST CALLVALUE DUP1 ISZERO PUSH2 0x10F JUMPI PUSH1 0x0 DUP1 REVERT JUMPDEST POP PUSH2 0xDA PUSH2 0x11E CALLDATASIZE PUSH1 0x4 PUSH2 0x7E4 JUMP JUMPDEST PUSH2 0x37C JUMP JUMPDEST CALLVALUE DUP1 ISZERO PUSH2 0x12F JUMPI PUSH1 0x0 DUP1 REVERT JUMPDEST POP PUSH2 0x157 PUSH32 0x0 DUP2 JUMP JUMPDEST PUSH1 0x40 MLOAD PUSH1 0x1 PUSH1 0x1 PUSH1 0xA0 SHL SUB SWAP1 SWAP2 AND DUP2 MSTORE PUSH1 0x20 ADD PUSH2 0xFA JUMP JUMPDEST CALLVALUE DUP1 ISZERO PUSH2 0x17B JUMPI PUSH1 0x0 DUP1 REVERT JUMPDEST POP PUSH2 0xDA PUSH2 0x3D9 JUMP JUMPDEST CALLVALUE DUP1 ISZERO PUSH2 0x190 JUMPI PUSH1 0x0 DUP1 REVERT JUMPDEST POP PUSH2 0x1A7 PUSH2 0x19F CALLDATASIZE PUSH1 0x4 PUSH2 0x7E4 JUMP JUMPDEST PUSH1 0x0 SWAP3 SWAP2 POP POP JUMP JUMPDEST PUSH1 0x40 MLOAD PUSH8 0xFFFFFFFFFFFFFFFF SWAP1 SWAP2 AND DUP2 MSTORE PUSH1 0x20 ADD PUSH2 0xFA JUMP JUMPDEST CALLVALUE DUP1 ISZERO PUSH2 0x1CC JUMPI PUSH1 0x0 DUP1 REVERT JUMPDEST POP PUSH1 0x2 SLOAD PUSH2 0x157 SWAP1 PUSH1 0x1 PUSH1 0x1 PUSH1 0xA0 SHL SUB AND DUP2 JUMP JUMPDEST CALLVALUE DUP1 ISZERO PUSH2 0x1EC JUMPI PUSH1 0x0 DUP1 REVERT JUMPDEST POP PUSH1 0x0 SLOAD PUSH1 0x1 PUSH1 0x1 PUSH1 0xA0 SHL SUB AND PUSH2 0x157 JUMP JUMPDEST CALLVALUE DUP1 ISZERO PUSH2 0x20A JUMPI PUSH1 0x0 DUP1 REVERT JUMPDEST POP ADDRESS PUSH2 0x157 JUMP JUMPDEST CALLVALUE DUP1 ISZERO PUSH2 0x21D JUMPI PUSH1 0x0 DUP1 REVERT JUMPDEST POP PUSH2 0x23E PUSH2 0x22C CALLDATASIZE PUSH1 0x4 PUSH2 0x80E JUMP JUMPDEST PUSH1 0x1 PUSH1 0x20 MSTORE PUSH1 0x0 SWAP1 DUP2 MSTORE PUSH1 0x40 SWAP1 KECCAK256 SLOAD DUP2 JUMP JUMPDEST PUSH1 0x40 MLOAD SWAP1 DUP2 MSTORE PUSH1 0x20 ADD PUSH2 0xFA JUMP JUMPDEST CALLVALUE DUP1 ISZERO PUSH2 0x258 JUMPI PUSH1 0x0 DUP1 REVERT JUMPDEST POP PUSH2 0xDA PUSH2 0x267 CALLDATASIZE PUSH1 0x4 PUSH2 0x830 JUMP JUMPDEST PUSH2 0x3ED JUMP JUMPDEST CALLVALUE DUP1 ISZERO PUSH2 0x278 JUMPI PUSH1 0x0 DUP1 REVERT JUMPDEST POP PUSH2 0xDA PUSH2 0x287 CALLDATASIZE PUSH1 0x4 PUSH2 0x830 JUMP JUMPDEST PUSH2 0x473 JUMP JUMPDEST CALLVALUE DUP1 ISZERO PUSH2 0x298 JUMPI PUSH1 0x0 DUP1 REVERT JUMPDEST POP PUSH2 0x2AC PUSH2 0x2A7 CALLDATASIZE PUSH1 0x4 PUSH2 0x84B JUMP JUMPDEST PUSH2 0x4B1 JUMP JUMPDEST PUSH1 0x40 MLOAD SWAP1 ISZERO ISZERO DUP2 MSTORE PUSH1 0x20 ADD PUSH2 0xFA JUMP JUMPDEST PUSH32 0x0 PUSH1 0x1 PUSH1 0x1 PUSH1 0xA0 SHL SUB AND CALLER EQ PUSH2 0x30C JUMPI PUSH1 0x40 MLOAD PUSH4 0x91AC5E4F PUSH1 0xE0 SHL DUP2 MSTORE CALLER PUSH1 0x4 DUP3 ADD MSTORE PUSH1 0x24 ADD JUMPDEST PUSH1 0x40 MLOAD DUP1 SWAP2 SUB SWAP1 REVERT JUMPDEST PUSH1 0x20 DUP8 ADD DUP1 CALLDATALOAD SWAP1 PUSH2 0x326 SWAP1 PUSH2 0x321 SWAP1 DUP11 PUSH2 0x80E JUMP JUMPDEST PUSH2 0x4E7 JUMP JUMPDEST EQ PUSH2 0x364 JUMPI PUSH2 0x338 PUSH1 0x20 DUP9 ADD DUP9 PUSH2 0x80E JUMP JUMPDEST PUSH1 0x40 MLOAD PUSH4 0x309AFAF3 PUSH1 0xE2 SHL DUP2 MSTORE PUSH4 0xFFFFFFFF SWAP1 SWAP2 AND PUSH1 0x4 DUP3 ADD MSTORE PUSH1 0x20 DUP9 ADD CALLDATALOAD PUSH1 0x24 DUP3 ADD MSTORE PUSH1 0x44 ADD PUSH2 0x303 JUMP JUMPDEST PUSH2 0x373 DUP8 DUP8 DUP8 DUP8 DUP8 DUP8 DUP8 PUSH2 0x529 JUMP JUMPDEST POP POP POP POP POP POP POP JUMP JUMPDEST PUSH2 0x384 PUSH2 0x637 JUMP JUMPDEST PUSH4 0xFFFFFFFF DUP3 AND PUSH1 0x0 DUP2 DUP2 MSTORE PUSH1 0x1 PUSH1 0x20 SWAP1 DUP2 MSTORE PUSH1 0x40 SWAP2 DUP3 SWAP1 KECCAK256 DUP5 SWAP1 SSTORE DUP2 MLOAD SWAP3 DUP4 MSTORE DUP3 ADD DUP4 SWAP1 MSTORE PUSH32 0x238399D427B947898EDB290F5FF0F9109849B1C3BA196A42E35F00C50A54B98B SWAP2 ADD PUSH1 0x40 MLOAD DUP1 SWAP2 SUB SWAP1 LOG1 POP POP JUMP JUMPDEST PUSH2 0x3E1 PUSH2 0x637 JUMP JUMPDEST PUSH2 0x3EB PUSH1 0x0 PUSH2 0x664 JUMP JUMPDEST JUMP JUMPDEST PUSH2 0x3F5 PUSH2 0x637 JUMP JUMPDEST PUSH1 0x40 MLOAD PUSH4 0xCA5EB5E1 PUSH1 0xE0 SHL DUP2 MSTORE PUSH1 0x1 PUSH1 0x1 PUSH1 0xA0 SHL SUB DUP3 DUP2 AND PUSH1 0x4 DUP4 ADD MSTORE PUSH32 0x0 AND SWAP1 PUSH4 0xCA5EB5E1 SWAP1 PUSH1 0x24 ADD PUSH1 0x0 PUSH1 0x40 MLOAD DUP1 DUP4 SUB DUP2 PUSH1 0x0 DUP8 DUP1 EXTCODESIZE ISZERO DUP1 ISZERO PUSH2 0x458 JUMPI PUSH1 0x0 DUP1 REVERT JUMPDEST POP GAS CALL ISZERO DUP1 ISZERO PUSH2 0x46C JUMPI RETURNDATASIZE PUSH1 0x0 DUP1 RETURNDATACOPY RETURNDATASIZE PUSH1 0x0 REVERT JUMPDEST POP POP POP POP POP JUMP JUMPDEST PUSH2 0x47B PUSH2 0x637 JUMP JUMPDEST PUSH1 0x1 PUSH1 0x1 PUSH1 0xA0 SHL SUB DUP2 AND PUSH2 0x4A5 JUMPI PUSH1 0x40 MLOAD PUSH4 0x1E4FBDF7 PUSH1 0xE0 SHL DUP2 MSTORE PUSH1 0x0 PUSH1 0x4 DUP3 ADD MSTORE PUSH1 0x24 ADD PUSH2 0x303 JUMP JUMPDEST PUSH2 0x4AE DUP2 PUSH2 0x664 JUMP JUMPDEST POP JUMP JUMPDEST PUSH1 0x0 PUSH1 0x20 DUP3 ADD DUP1 CALLDATALOAD SWAP1 PUSH1 0x1 SWAP1 DUP4 SWAP1 PUSH2 0x4C9 SWAP1 DUP7 PUSH2 0x80E JUMP JUMPDEST PUSH4 0xFFFFFFFF AND DUP2 MSTORE PUSH1 0x20 DUP2 ADD SWAP2 SWAP1 SWAP2 MSTORE PUSH1 0x40 ADD PUSH1 0x0 KECCAK256 SLOAD EQ SWAP3 SWAP2 POP POP JUMP JUMPDEST PUSH4 0xFFFFFFFF DUP2 AND PUSH1 0x0 SWAP1 DUP2 MSTORE PUSH1 0x1 PUSH1 0x20 MSTORE PUSH1 0x40 DUP2 KECCAK256 SLOAD DUP1 PUSH2 0x523 JUMPI PUSH1 0x40 MLOAD PUSH4 0xF6FF4FB7 PUSH1 0xE0 SHL DUP2 MSTORE PUSH4 0xFFFFFFFF DUP5 AND PUSH1 0x4 DUP3 ADD MSTORE PUSH1 0x24 ADD PUSH2 0x303 JUMP JUMPDEST SWAP3 SWAP2 POP POP JUMP JUMPDEST PUSH1 0x0 DUP1 DUP1 DUP1 DUP1 PUSH2 0x53B DUP10 DUP12 ADD DUP12 PUSH2 0xB34 JUMP JUMPDEST SWAP4 SWAP9 POP SWAP2 SWAP7 POP SWAP5 POP SWAP3 POP SWAP1 POP PUSH1 0x0 PUSH2 0x556 PUSH1 0x20 DUP15 ADD DUP15 PUSH2 0x80E JUMP JUMPDEST SWAP1 POP PUSH1 0x0 DUP14 PUSH1 0x20 ADD CALLDATALOAD SWAP1 POP PUSH32 0xDB969A2247D6439324C4A87F35C4C2913313573A4AB727785DFF3CD99749FCCD DUP3 DUP3 PUSH1 0x40 MLOAD PUSH2 0x5A3 SWAP3 SWAP2 SWAP1 PUSH4 0xFFFFFFFF SWAP3 SWAP1 SWAP3 AND DUP3 MSTORE PUSH1 0x20 DUP3 ADD MSTORE PUSH1 0x40 ADD SWAP1 JUMP JUMPDEST PUSH1 0x40 MLOAD DUP1 SWAP2 SUB SWAP1 LOG1 PUSH1 0x2 SLOAD PUSH1 0x40 MLOAD PUSH4 0x6D4AB48D PUSH1 0xE1 SHL DUP2 MSTORE PUSH1 0x1 PUSH1 0x1 PUSH1 0xA0 SHL SUB SWAP1 SWAP2 AND SWAP1 PUSH4 0xDA95691A SWAP1 PUSH2 0x5E3 SWAP1 DUP11 SWAP1 DUP11 SWAP1 DUP11 SWAP1 DUP11 SWAP1 DUP11 SWAP1 PUSH1 0x4 ADD PUSH2 0xCE2 JUMP JUMPDEST PUSH1 0x20 PUSH1 0x40 MLOAD DUP1 DUP4 SUB DUP2 PUSH1 0x0 DUP8 GAS CALL ISZERO DUP1 ISZERO PUSH2 0x602 JUMPI RETURNDATASIZE PUSH1 0x0 DUP1 RETURNDATACOPY RETURNDATASIZE PUSH1 0x0 REVERT JUMPDEST POP POP POP POP PUSH1 0x40 MLOAD RETURNDATASIZE PUSH1 0x1F NOT PUSH1 0x1F DUP3 ADD AND DUP3 ADD DUP1 PUSH1 0x40 MSTORE POP DUP2 ADD SWAP1 PUSH2 0x626 SWAP2 SWAP1 PUSH2 0xD82 JUMP JUMPDEST POP POP POP POP POP POP POP POP POP POP POP POP POP POP POP JUMP JUMPDEST PUSH1 0x0 SLOAD PUSH1 0x1 PUSH1 0x1 PUSH1 0xA0 SHL SUB AND CALLER EQ PUSH2 0x3EB JUMPI PUSH1 0x40 MLOAD PUSH4 0x118CDAA7 PUSH1 0xE0 SHL DUP2 MSTORE CALLER PUSH1 0x4 DUP3 ADD MSTORE PUSH1 0x24 ADD PUSH2 0x303 JUMP JUMPDEST PUSH1 0x0 DUP1 SLOAD PUSH1 0x1 PUSH1 0x1 PUSH1 0xA0 SHL SUB DUP4 DUP2 AND PUSH1 0x1 PUSH1 0x1 PUSH1 0xA0 SHL SUB NOT DUP4 AND DUP2 OR DUP5 SSTORE PUSH1 0x40 MLOAD SWAP2 SWAP1 SWAP3 AND SWAP3 DUP4 SWAP2 PUSH32 0x8BE0079C531659141344CD1FD0A4F28419497F9722A3DAAFE3B4186F6B6457E0 SWAP2 SWAP1 LOG3 POP POP JUMP JUMPDEST PUSH1 0x0 PUSH1 0x60 DUP3 DUP5 SUB SLT ISZERO PUSH2 0x6C6 JUMPI PUSH1 0x0 DUP1 REVERT JUMPDEST POP SWAP2 SWAP1 POP JUMP JUMPDEST PUSH1 0x0 DUP1 DUP4 PUSH1 0x1F DUP5 ADD SLT PUSH2 0x6DE JUMPI PUSH1 0x0 DUP1 REVERT JUMPDEST POP DUP2 CALLDATALOAD PUSH8 0xFFFFFFFFFFFFFFFF DUP2 GT ISZERO PUSH2 0x6F6 JUMPI PUSH1 0x0 DUP1 REVERT JUMPDEST PUSH1 0x20 DUP4 ADD SWAP2 POP DUP4 PUSH1 0x20 DUP3 DUP6 ADD ADD GT ISZERO PUSH2 0x70E JUMPI PUSH1 0x0 DUP1 REVERT JUMPDEST SWAP3 POP SWAP3 SWAP1 POP JUMP JUMPDEST DUP1 CALLDATALOAD PUSH1 0x1 PUSH1 0x1 PUSH1 0xA0 SHL SUB DUP2 AND DUP2 EQ PUSH2 0x72C JUMPI PUSH1 0x0 DUP1 REVERT JUMPDEST SWAP2 SWAP1 POP JUMP JUMPDEST PUSH1 0x0 DUP1 PUSH1 0x0 DUP1 PUSH1 0x0 DUP1 PUSH1 0x0 PUSH1 0xE0 DUP9 DUP11 SUB SLT ISZERO PUSH2 0x74C JUMPI PUSH1 0x0 DUP1 REVERT JUMPDEST PUSH2 0x756 DUP10 DUP10 PUSH2 0x6B4 JUMP JUMPDEST SWAP7 POP PUSH1 0x60 DUP9 ADD CALLDATALOAD SWAP6 POP PUSH1 0x80 DUP9 ADD CALLDATALOAD PUSH8 0xFFFFFFFFFFFFFFFF DUP1 DUP3 GT ISZERO PUSH2 0x77A JUMPI PUSH1 0x0 DUP1 REVERT JUMPDEST PUSH2 0x786 DUP12 DUP4 DUP13 ADD PUSH2 0x6CC JUMP JUMPDEST SWAP1 SWAP8 POP SWAP6 POP DUP6 SWAP2 POP PUSH2 0x79A PUSH1 0xA0 DUP12 ADD PUSH2 0x715 JUMP JUMPDEST SWAP5 POP PUSH1 0xC0 DUP11 ADD CALLDATALOAD SWAP2 POP DUP1 DUP3 GT ISZERO PUSH2 0x7B0 JUMPI PUSH1 0x0 DUP1 REVERT JUMPDEST POP PUSH2 0x7BD DUP11 DUP3 DUP12 ADD PUSH2 0x6CC JUMP JUMPDEST SWAP9 SWAP12 SWAP8 SWAP11 POP SWAP6 SWAP9 POP SWAP4 SWAP7 SWAP3 SWAP6 SWAP3 SWAP4 POP POP POP JUMP JUMPDEST DUP1 CALLDATALOAD PUSH4 0xFFFFFFFF DUP2 AND DUP2 EQ PUSH2 0x72C JUMPI PUSH1 0x0 DUP1 REVERT JUMPDEST PUSH1 0x0 DUP1 PUSH1 0x40 DUP4 DUP6 SUB SLT ISZERO PUSH2 0x7F7 JUMPI PUSH1 0x0 DUP1 REVERT JUMPDEST PUSH2 0x800 DUP4 PUSH2 0x7D0 JUMP JUMPDEST SWAP5 PUSH1 0x20 SWAP4 SWAP1 SWAP4 ADD CALLDATALOAD SWAP4 POP POP POP JUMP JUMPDEST PUSH1 0x0 PUSH1 0x20 DUP3 DUP5 SUB SLT ISZERO PUSH2 0x820 JUMPI PUSH1 0x0 DUP1 REVERT JUMPDEST PUSH2 0x829 DUP3 PUSH2 0x7D0 JUMP JUMPDEST SWAP4 SWAP3 POP POP POP JUMP JUMPDEST PUSH1 0x0 PUSH1 0x20 DUP3 DUP5 SUB SLT ISZERO PUSH2 0x842 JUMPI PUSH1 0x0 DUP1 REVERT JUMPDEST PUSH2 0x829 DUP3 PUSH2 0x715 JUMP JUMPDEST PUSH1 0x0 PUSH1 0x60 DUP3 DUP5 SUB SLT ISZERO PUSH2 0x85D JUMPI PUSH1 0x0 DUP1 REVERT JUMPDEST PUSH2 0x829 DUP4 DUP4 PUSH2 0x6B4 JUMP JUMPDEST PUSH4 0x4E487B71 PUSH1 0xE0 SHL PUSH1 0x0 MSTORE PUSH1 0x41 PUSH1 0x4 MSTORE PUSH1 0x24 PUSH1 0x0 REVERT JUMPDEST PUSH1 0x40 MLOAD PUSH1 0x1F DUP3 ADD PUSH1 0x1F NOT AND DUP2 ADD PUSH8 0xFFFFFFFFFFFFFFFF DUP2 GT DUP3 DUP3 LT OR ISZERO PUSH2 0x8A6 JUMPI PUSH2 0x8A6 PUSH2 0x867 JUMP JUMPDEST PUSH1 0x40 MSTORE SWAP2 SWAP1 POP JUMP JUMPDEST PUSH1 0x0 PUSH8 0xFFFFFFFFFFFFFFFF DUP3 GT ISZERO PUSH2 0x8C8 JUMPI PUSH2 0x8C8 PUSH2 0x867 JUMP JUMPDEST POP PUSH1 0x5 SHL PUSH1 0x20 ADD SWAP1 JUMP JUMPDEST PUSH1 0x0 DUP3 PUSH1 0x1F DUP4 ADD SLT PUSH2 0x8E3 JUMPI PUSH1 0x0 DUP1 REVERT JUMPDEST DUP2 CALLDATALOAD PUSH1 0x20 PUSH2 0x8F8 PUSH2 0x8F3 DUP4 PUSH2 0x8AE JUMP JUMPDEST PUSH2 0x87D JUMP JUMPDEST DUP1 DUP4 DUP3 MSTORE PUSH1 0x20 DUP3 ADD SWAP2 POP PUSH1 0x20 DUP5 PUSH1 0x5 SHL DUP8 ADD ADD SWAP4 POP DUP7 DUP5 GT ISZERO PUSH2 0x91A JUMPI PUSH1 0x0 DUP1 REVERT JUMPDEST PUSH1 0x20 DUP7 ADD JUMPDEST DUP5 DUP2 LT ISZERO PUSH2 0x93D JUMPI PUSH2 0x930 DUP2 PUSH2 0x715 JUMP JUMPDEST DUP4 MSTORE SWAP2 DUP4 ADD SWAP2 DUP4 ADD PUSH2 0x91F JUMP JUMPDEST POP SWAP7 SWAP6 POP POP POP POP POP POP JUMP JUMPDEST PUSH1 0x0 DUP3 PUSH1 0x1F DUP4 ADD SLT PUSH2 0x959 JUMPI PUSH1 0x0 DUP1 REVERT JUMPDEST DUP2 CALLDATALOAD PUSH1 0x20 PUSH2 0x969 PUSH2 0x8F3 DUP4 PUSH2 0x8AE JUMP JUMPDEST DUP1 DUP4 DUP3 MSTORE PUSH1 0x20 DUP3 ADD SWAP2 POP PUSH1 0x20 DUP5 PUSH1 0x5 SHL DUP8 ADD ADD SWAP4 POP DUP7 DUP5 GT ISZERO PUSH2 0x98B JUMPI PUSH1 0x0 DUP1 REVERT JUMPDEST PUSH1 0x20 DUP7 ADD JUMPDEST DUP5 DUP2 LT ISZERO PUSH2 0x93D JUMPI DUP1 CALLDATALOAD DUP4 MSTORE SWAP2 DUP4 ADD SWAP2 DUP4 ADD PUSH2 0x990 JUMP JUMPDEST PUSH1 0x0 PUSH8 0xFFFFFFFFFFFFFFFF DUP4 GT ISZERO PUSH2 0x9C1 JUMPI PUSH2 0x9C1 PUSH2 0x867 JUMP JUMPDEST PUSH2 0x9D4 PUSH1 0x1F DUP5 ADD PUSH1 0x1F NOT AND PUSH1 0x20 ADD PUSH2 0x87D JUMP JUMPDEST SWAP1 POP DUP3 DUP2 MSTORE DUP4 DUP4 DUP4 ADD GT ISZERO PUSH2 0x9E8 JUMPI PUSH1 0x0 DUP1 REVERT JUMPDEST DUP3 DUP3 PUSH1 0x20 DUP4 ADD CALLDATACOPY PUSH1 0x0 PUSH1 0x20 DUP5 DUP4 ADD ADD MSTORE SWAP4 SWAP3 POP POP POP JUMP JUMPDEST PUSH1 0x0 DUP3 PUSH1 0x1F DUP4 ADD SLT PUSH2 0xA10 JUMPI PUSH1 0x0 DUP1 REVERT JUMPDEST PUSH2 0x829 DUP4 DUP4 CALLDATALOAD PUSH1 0x20 DUP6 ADD PUSH2 0x9A7 JUMP JUMPDEST PUSH1 0x0 DUP3 PUSH1 0x1F DUP4 ADD SLT PUSH2 0xA30 JUMPI PUSH1 0x0 DUP1 REVERT JUMPDEST DUP2 CALLDATALOAD PUSH1 0x20 PUSH2 0xA40 PUSH2 0x8F3 DUP4 PUSH2 0x8AE JUMP JUMPDEST DUP3 DUP2 MSTORE PUSH1 0x5 SWAP3 SWAP1 SWAP3 SHL DUP5 ADD DUP2 ADD SWAP2 DUP2 DUP2 ADD SWAP1 DUP7 DUP5 GT ISZERO PUSH2 0xA5F JUMPI PUSH1 0x0 DUP1 REVERT JUMPDEST DUP3 DUP7 ADD JUMPDEST DUP5 DUP2 LT ISZERO PUSH2 0x93D JUMPI DUP1 CALLDATALOAD PUSH8 0xFFFFFFFFFFFFFFFF DUP2 GT ISZERO PUSH2 0xA83 JUMPI PUSH1 0x0 DUP1 DUP2 REVERT JUMPDEST PUSH2 0xA91 DUP10 DUP7 DUP4 DUP12 ADD ADD PUSH2 0x9FF JUMP JUMPDEST DUP5 MSTORE POP SWAP2 DUP4 ADD SWAP2 DUP4 ADD PUSH2 0xA63 JUMP JUMPDEST PUSH1 0x0 DUP3 PUSH1 0x1F DUP4 ADD SLT PUSH2 0xAB0 JUMPI PUSH1 0x0 DUP1 REVERT JUMPDEST DUP2 CALLDATALOAD PUSH1 0x20 PUSH2 0xAC0 PUSH2 0x8F3 DUP4 PUSH2 0x8AE JUMP JUMPDEST DUP3 DUP2 MSTORE PUSH1 0x5 SWAP3 SWAP1 SWAP3 SHL DUP5 ADD DUP2 ADD SWAP2 DUP2 DUP2 ADD SWAP1 DUP7 DUP5 GT ISZERO PUSH2 0xADF JUMPI PUSH1 0x0 DUP1 REVERT JUMPDEST DUP3 DUP7 ADD JUMPDEST DUP5 DUP2 LT ISZERO PUSH2 0x93D JUMPI DUP1 CALLDATALOAD PUSH8 0xFFFFFFFFFFFFFFFF DUP2 GT ISZERO PUSH2 0xB03 JUMPI PUSH1 0x0 DUP1 DUP2 REVERT JUMPDEST DUP8 ADD PUSH1 0x3F DUP2 ADD DUP10 SGT PUSH2 0xB15 JUMPI PUSH1 0x0 DUP1 DUP2 REVERT JUMPDEST PUSH2 0xB26 DUP10 DUP7 DUP4 ADD CALLDATALOAD PUSH1 0x40 DUP5 ADD PUSH2 0x9A7 JUMP JUMPDEST DUP5 MSTORE POP SWAP2 DUP4 ADD SWAP2 DUP4 ADD PUSH2 0xAE3 JUMP JUMPDEST PUSH1 0x0 DUP1 PUSH1 0x0 DUP1 PUSH1 0x0 PUSH1 0xA0 DUP7 DUP9 SUB SLT ISZERO PUSH2 0xB4C JUMPI PUSH1 0x0 DUP1 REVERT JUMPDEST DUP6 CALLDATALOAD PUSH8 0xFFFFFFFFFFFFFFFF DUP1 DUP3 GT ISZERO PUSH2 0xB64 JUMPI PUSH1 0x0 DUP1 REVERT JUMPDEST PUSH2 0xB70 DUP10 DUP4 DUP11 ADD PUSH2 0x8D2 JUMP JUMPDEST SWAP7 POP PUSH1 0x20 DUP9 ADD CALLDATALOAD SWAP2 POP DUP1 DUP3 GT ISZERO PUSH2 0xB86 JUMPI PUSH1 0x0 DUP1 REVERT JUMPDEST PUSH2 0xB92 DUP10 DUP4 DUP11 ADD PUSH2 0x948 JUMP JUMPDEST SWAP6 POP PUSH1 0x40 DUP9 ADD CALLDATALOAD SWAP2 POP DUP1 DUP3 GT ISZERO PUSH2 0xBA8 JUMPI PUSH1 0x0 DUP1 REVERT JUMPDEST PUSH2 0xBB4 DUP10 DUP4 DUP11 ADD PUSH2 0xA1F JUMP JUMPDEST SWAP5 POP PUSH1 0x60 DUP9 ADD CALLDATALOAD SWAP2 POP DUP1 DUP3 GT ISZERO PUSH2 0xBCA JUMPI PUSH1 0x0 DUP1 REVERT JUMPDEST PUSH2 0xBD6 DUP10 DUP4 DUP11 ADD PUSH2 0xA9F JUMP JUMPDEST SWAP4 POP PUSH1 0x80 DUP9 ADD CALLDATALOAD SWAP2 POP DUP1 DUP3 GT ISZERO PUSH2 0xBEC JUMPI PUSH1 0x0 DUP1 REVERT JUMPDEST POP PUSH2 0xBF9 DUP9 DUP3 DUP10 ADD PUSH2 0x9FF JUMP JUMPDEST SWAP2 POP POP SWAP3 SWAP6 POP SWAP3 SWAP6 SWAP1 SWAP4 POP JUMP JUMPDEST PUSH1 0x0 DUP2 MLOAD DUP1 DUP5 MSTORE PUSH1 0x20 DUP1 DUP6 ADD SWAP5 POP PUSH1 0x20 DUP5 ADD PUSH1 0x0 JUMPDEST DUP4 DUP2 LT ISZERO PUSH2 0xC37 JUMPI DUP2 MLOAD DUP8 MSTORE SWAP6 DUP3 ADD SWAP6 SWAP1 DUP3 ADD SWAP1 PUSH1 0x1 ADD PUSH2 0xC1B JUMP JUMPDEST POP SWAP5 SWAP6 SWAP5 POP POP POP POP POP JUMP JUMPDEST PUSH1 0x0 DUP2 MLOAD DUP1 DUP5 MSTORE PUSH1 0x0 JUMPDEST DUP2 DUP2 LT ISZERO PUSH2 0xC68 JUMPI PUSH1 0x20 DUP2 DUP6 ADD DUP2 ADD MLOAD DUP7 DUP4 ADD DUP3 ADD MSTORE ADD PUSH2 0xC4C JUMP JUMPDEST POP PUSH1 0x0 PUSH1 0x20 DUP3 DUP7 ADD ADD MSTORE PUSH1 0x20 PUSH1 0x1F NOT PUSH1 0x1F DUP4 ADD AND DUP6 ADD ADD SWAP2 POP POP SWAP3 SWAP2 POP POP JUMP JUMPDEST PUSH1 0x0 DUP3 DUP3 MLOAD DUP1 DUP6 MSTORE PUSH1 0x20 DUP1 DUP7 ADD SWAP6 POP PUSH1 0x20 DUP3 PUSH1 0x5 SHL DUP5 ADD ADD PUSH1 0x20 DUP7 ADD PUSH1 0x0 JUMPDEST DUP5 DUP2 LT ISZERO PUSH2 0xCD5 JUMPI PUSH1 0x1F NOT DUP7 DUP5 SUB ADD DUP10 MSTORE PUSH2 0xCC3 DUP4 DUP4 MLOAD PUSH2 0xC42 JUMP JUMPDEST SWAP9 DUP5 ADD SWAP9 SWAP3 POP SWAP1 DUP4 ADD SWAP1 PUSH1 0x1 ADD PUSH2 0xCA7 JUMP JUMPDEST POP SWAP1 SWAP8 SWAP7 POP POP POP POP POP POP POP JUMP JUMPDEST PUSH1 0xA0 DUP1 DUP3 MSTORE DUP7 MLOAD SWAP1 DUP3 ADD DUP2 SWAP1 MSTORE PUSH1 0x0 SWAP1 PUSH1 0x20 SWAP1 PUSH1 0xC0 DUP5 ADD SWAP1 DUP3 DUP11 ADD DUP5 JUMPDEST DUP3 DUP2 LT ISZERO PUSH2 0xD24 JUMPI DUP2 MLOAD PUSH1 0x1 PUSH1 0x1 PUSH1 0xA0 SHL SUB AND DUP5 MSTORE SWAP3 DUP5 ADD SWAP3 SWAP1 DUP5 ADD SWAP1 PUSH1 0x1 ADD PUSH2 0xCFF JUMP JUMPDEST POP POP POP DUP4 DUP2 SUB PUSH1 0x20 DUP6 ADD MSTORE PUSH2 0xD39 DUP2 DUP10 PUSH2 0xC06 JUMP JUMPDEST SWAP2 POP POP DUP3 DUP2 SUB PUSH1 0x40 DUP5 ADD MSTORE PUSH2 0xD4E DUP2 DUP8 PUSH2 0xC88 JUMP JUMPDEST SWAP1 POP DUP3 DUP2 SUB PUSH1 0x60 DUP5 ADD MSTORE PUSH2 0xD62 DUP2 DUP7 PUSH2 0xC88 JUMP JUMPDEST SWAP1 POP DUP3 DUP2 SUB PUSH1 0x80 DUP5 ADD MSTORE PUSH2 0xD76 DUP2 DUP6 PUSH2 0xC42 JUMP JUMPDEST SWAP9 SWAP8 POP POP POP POP POP POP POP POP JUMP JUMPDEST PUSH1 0x0 PUSH1 0x20 DUP3 DUP5 SUB SLT ISZERO PUSH2 0xD94 JUMPI PUSH1 0x0 DUP1 REVERT JUMPDEST POP MLOAD SWAP2 SWAP1 POP JUMP INVALID LOG2 PUSH5 0x6970667358 0x22 SLT KECCAK256 AND SWAP12 0xCD 0xB4 0xC9 SWAP6 0xE5 0xA7 0xF8 PUSH32 0x5DCE547FAA01324B3FA3B292A4ED8536679D78A853C364736F6C634300081600 CALLER "
        },
        "gasEstimates": {
          "creation": {
            "codeDepositCost": "707400",
            "executionCost": "infinite",
            "totalCost": "infinite"
          },
          "external": {
            "allowInitializePath((uint32,bytes32,uint64))": "infinite",
            "composeMsgSender()": "279",
            "endpoint()": "infinite",
            "governorBravoAddress()": "2360",
            "lzReceive((uint32,bytes32,uint64),bytes32,bytes,address,bytes)": "infinite",
            "nextNonce(uint32,bytes32)": "489",
            "oAppVersion()": "207",
            "owner()": "2376",
            "peers(uint32)": "2529",
            "renounceOwnership()": "infinite",
            "setDelegate(address)": "infinite",
            "setPeer(uint32,bytes32)": "26048",
            "transferOwnership(address)": "28399"
          },
          "internal": {
            "_lzReceive(struct Origin calldata,bytes32,bytes calldata,address,bytes calldata)": "infinite"
          }
        },
        "methodIdentifiers": {
          "allowInitializePath((uint32,bytes32,uint64))": "ff7bd03d",
          "composeMsgSender()": "b92d0eff",
          "endpoint()": "5e280f11",
          "governorBravoAddress()": "84a6b60b",
          "lzReceive((uint32,bytes32,uint64),bytes32,bytes,address,bytes)": "13137d65",
          "nextNonce(uint32,bytes32)": "7d25a05e",
          "oAppVersion()": "17442b70",
          "owner()": "8da5cb5b",
          "peers(uint32)": "bb0b6a53",
          "renounceOwnership()": "715018a6",
          "setDelegate(address)": "ca5eb5e1",
          "setPeer(uint32,bytes32)": "3400288b",
          "transferOwnership(address)": "f2fde38b"
        }
      },
      "storageLayout": {
        "storage": [
          {
            "astId": 1251,
            "contract": "contracts/LZeroRecipient.sol:LZeroRecipient",
            "label": "_owner",
            "offset": 0,
            "slot": "0",
            "type": "t_address"
          },
          {
            "astId": 18,
            "contract": "contracts/LZeroRecipient.sol:LZeroRecipient",
            "label": "peers",
            "offset": 0,
            "slot": "1",
            "type": "t_mapping(t_uint32,t_bytes32)"
          },
          {
            "astId": 2324,
            "contract": "contracts/LZeroRecipient.sol:LZeroRecipient",
            "label": "governorBravoAddress",
            "offset": 0,
            "slot": "2",
            "type": "t_address"
          }
        ],
        "types": {
          "t_address": {
            "encoding": "inplace",
            "label": "address",
            "numberOfBytes": "20"
          },
          "t_bytes32": {
            "encoding": "inplace",
            "label": "bytes32",
            "numberOfBytes": "32"
          },
          "t_mapping(t_uint32,t_bytes32)": {
            "encoding": "mapping",
            "key": "t_uint32",
            "label": "mapping(uint32 => bytes32)",
            "numberOfBytes": "32",
            "value": "t_bytes32"
          },
          "t_uint32": {
            "encoding": "inplace",
            "label": "uint32",
            "numberOfBytes": "4"
          }
        }
      },
      "userdoc": {
        "events": {
          "MessageReceived(uint32,bytes32)": {
            "notice": "Emitted when a message is received through _lzReceive."
          }
        },
        "kind": "user",
        "methods": {
          "allowInitializePath((uint32,bytes32,uint64))": {
            "notice": "Checks if the path initialization is allowed based on the provided origin."
          },
          "composeMsgSender()": {
            "notice": "Retrieves the address responsible for 'sending' composeMsg's to the Endpoint."
          },
          "constructor": {
            "notice": "Initializes the OApp with the source chain's endpoint address."
          },
          "endpoint()": {
            "notice": "Retrieves the LayerZero endpoint associated with the OApp."
          },
          "nextNonce(uint32,bytes32)": {
            "notice": "Retrieves the next nonce for a given source endpoint and sender address."
          },
          "oAppVersion()": {
            "notice": "Retrieves the OApp version information."
          },
          "peers(uint32)": {
            "notice": "Retrieves the peer (OApp) associated with a corresponding endpoint."
          },
          "setDelegate(address)": {
            "notice": "Sets the delegate address for the OApp."
          },
          "setPeer(uint32,bytes32)": {
            "notice": "Sets the peer address (OApp instance) for a corresponding endpoint."
          }
        },
        "version": 1
      }
    }
  }
}