{
  "address": "0x2947941CDe2447D1cA5Df91801Cc85B8B01cb89d",
  "abi": [
    {
      "inputs": [
        {
          "internalType": "address",
          "name": "_endpoint",
          "type": "address"
        },
        {
          "internalType": "address",
          "name": "_owner",
          "type": "address"
        }
      ],
      "stateMutability": "nonpayable",
      "type": "constructor"
    },
    {
      "inputs": [
        {
          "internalType": "address",
          "name": "target",
          "type": "address"
        }
      ],
      "name": "AddressEmptyCode",
      "type": "error"
    },
    {
      "inputs": [
        {
          "internalType": "address",
          "name": "account",
          "type": "address"
        }
      ],
      "name": "AddressInsufficientBalance",
      "type": "error"
    },
    {
      "inputs": [],
      "name": "FailedInnerCall",
      "type": "error"
    },
    {
      "inputs": [],
      "name": "InvalidDelegate",
      "type": "error"
    },
    {
      "inputs": [],
      "name": "InvalidEndpointCall",
      "type": "error"
    },
    {
      "inputs": [],
      "name": "LzTokenUnavailable",
      "type": "error"
    },
    {
      "inputs": [
        {
          "internalType": "uint32",
          "name": "eid",
          "type": "uint32"
        }
      ],
      "name": "NoPeer",
      "type": "error"
    },
    {
      "inputs": [
        {
          "internalType": "uint256",
          "name": "msgValue",
          "type": "uint256"
        }
      ],
      "name": "NotEnoughNative",
      "type": "error"
    },
    {
      "inputs": [
        {
          "internalType": "uint32",
          "name": "eid",
          "type": "uint32"
        },
        {
          "internalType": "bytes32",
          "name": "sender",
          "type": "bytes32"
        }
      ],
      "name": "OnlyPeer",
      "type": "error"
    },
    {
      "inputs": [
        {
          "internalType": "address",
          "name": "owner",
          "type": "address"
        }
      ],
      "name": "OwnableInvalidOwner",
      "type": "error"
    },
    {
      "inputs": [
        {
          "internalType": "address",
          "name": "account",
          "type": "address"
        }
      ],
      "name": "OwnableUnauthorizedAccount",
      "type": "error"
    },
    {
      "inputs": [
        {
          "internalType": "address",
          "name": "token",
          "type": "address"
        }
      ],
      "name": "SafeERC20FailedOperation",
      "type": "error"
    },
    {
      "anonymous": false,
      "inputs": [
        {
          "indexed": true,
          "internalType": "address",
          "name": "previousOwner",
          "type": "address"
        },
        {
          "indexed": true,
          "internalType": "address",
          "name": "newOwner",
          "type": "address"
        }
      ],
      "name": "OwnershipTransferred",
      "type": "event"
    },
    {
      "anonymous": false,
      "inputs": [
        {
          "indexed": false,
          "internalType": "uint32",
          "name": "eid",
          "type": "uint32"
        },
        {
          "indexed": false,
          "internalType": "bytes32",
          "name": "peer",
          "type": "bytes32"
        }
      ],
      "name": "PeerSet",
      "type": "event"
    },
    {
      "inputs": [],
      "name": "MAX_SUPPLY",
      "outputs": [
        {
          "internalType": "uint256",
          "name": "",
          "type": "uint256"
        }
      ],
      "stateMutability": "view",
      "type": "function"
    },
    {
      "inputs": [
        {
          "internalType": "address",
          "name": "addr",
          "type": "address"
        }
      ],
      "name": "addressToBytes32",
      "outputs": [
        {
          "internalType": "bytes32",
          "name": "",
          "type": "bytes32"
        }
      ],
      "stateMutability": "pure",
      "type": "function"
    },
    {
      "inputs": [],
      "name": "endpoint",
      "outputs": [
        {
          "internalType": "contract ILayerZeroEndpointV2",
          "name": "",
          "type": "address"
        }
      ],
      "stateMutability": "view",
      "type": "function"
    },
    {
      "inputs": [
        {
          "internalType": "address",
          "name": "peer",
          "type": "address"
        }
      ],
      "name": "increaseSupplyCap",
      "outputs": [],
      "stateMutability": "nonpayable",
      "type": "function"
    },
    {
      "inputs": [],
      "name": "oAppVersion",
      "outputs": [
        {
          "internalType": "uint64",
          "name": "senderVersion",
          "type": "uint64"
        },
        {
          "internalType": "uint64",
          "name": "receiverVersion",
          "type": "uint64"
        }
      ],
      "stateMutability": "view",
      "type": "function"
    },
    {
      "inputs": [],
      "name": "owner",
      "outputs": [
        {
          "internalType": "address",
          "name": "",
          "type": "address"
        }
      ],
      "stateMutability": "view",
      "type": "function"
    },
    {
      "inputs": [
        {
          "internalType": "uint32",
          "name": "eid",
          "type": "uint32"
        }
      ],
      "name": "peers",
      "outputs": [
        {
          "internalType": "bytes32",
          "name": "peer",
          "type": "bytes32"
        }
      ],
      "stateMutability": "view",
      "type": "function"
    },
    {
      "inputs": [],
      "name": "renounceOwnership",
      "outputs": [],
      "stateMutability": "nonpayable",
      "type": "function"
    },
    {
      "inputs": [
        {
          "internalType": "address",
          "name": "_delegate",
          "type": "address"
        }
      ],
      "name": "setDelegate",
      "outputs": [],
      "stateMutability": "nonpayable",
      "type": "function"
    },
    {
      "inputs": [
        {
          "internalType": "uint32",
          "name": "_eid",
          "type": "uint32"
        },
        {
          "internalType": "bytes32",
          "name": "_peer",
          "type": "bytes32"
        }
      ],
      "name": "setPeer",
      "outputs": [],
      "stateMutability": "nonpayable",
      "type": "function"
    },
    {
      "inputs": [
        {
          "internalType": "address",
          "name": "newOwner",
          "type": "address"
        }
      ],
      "name": "transferOwnership",
      "outputs": [],
      "stateMutability": "nonpayable",
      "type": "function"
    },
    {
      "inputs": [
        {
          "internalType": "address",
          "name": "peer",
          "type": "address"
        }
      ],
      "name": "updatePeers",
      "outputs": [],
      "stateMutability": "nonpayable",
      "type": "function"
    }
  ],
  "transactionHash": "0xddf4ba03ea4547f4693c6c730bf5132e9d14622f1767e267f53b20ce3e1c200a",
  "args": [
    "0x6edce65403992e310a62460808c4b910d972f10f",
    "0x35f47c8507D302c4deb675cbdE2b7F9268A35f4A"
  ],
  "numDeployments": 8,
  "solcInputHash": "57f142eebaee8161b735167c99730932",
  "bytecode": "0x60a060405234801561001057600080fd5b50604051620010aa380380620010aa83398101604081905261003191610164565b8181338061005957604051631e4fbdf760e01b81526000600482015260240160405180910390fd5b610062816100f8565b506001600160a01b03808316608052811661009057604051632d618d8160e21b815260040160405180910390fd5b60805160405163ca5eb5e160e01b81526001600160a01b0383811660048301529091169063ca5eb5e190602401600060405180830381600087803b1580156100d757600080fd5b505af11580156100eb573d6000803e3d6000fd5b5050505050505050610197565b600080546001600160a01b038381166001600160a01b0319831681178455604051919092169283917f8be0079c531659141344cd1fd0a4f28419497f9722a3daafe3b4186f6b6457e09190a35050565b80516001600160a01b038116811461015f57600080fd5b919050565b6000806040838503121561017757600080fd5b61018083610148565b915061018e60208401610148565b90509250929050565b608051610edb620001cf6000396000818161010e015281816102980152818161061b0152818161071f01526107d80152610edb6000f3fe608060405234801561001057600080fd5b50600436106100b45760003560e01c80638da5cb5b116100715780638da5cb5b1461016a578063a4387a441461017b578063bb0b6a531461018e578063ca5eb5e1146101ae578063d2019a5a146101c1578063f2fde38b146101d457600080fd5b806317442b70146100b957806332cb6b0c146100d35780633400288b146100f45780635e280f1114610109578063715018a61461014857806382c947b714610150575b600080fd5b604080516001815260006020820152015b60405180910390f35b6100e66b033b2e3c9fd0803ce800000081565b6040519081526020016100ca565b610107610102366004610aa3565b6101e7565b005b6101307f000000000000000000000000000000000000000000000000000000000000000081565b6040516001600160a01b0390911681526020016100ca565b610107610244565b6100e661015e366004610ae2565b6001600160a01b031690565b6000546001600160a01b0316610130565b610107610189366004610ae2565b610258565b6100e661019c366004610aff565b60016020526000908152604090205481565b6101076101bc366004610ae2565b610271565b6101076101cf366004610ae2565b6102f7565b6101076101e2366004610ae2565b61052b565b6101ef61056b565b63ffffffff8216600081815260016020908152604091829020849055815192835282018390527f238399d427b947898edb290f5ff0f9109849b1c3ba196a42e35f00c50a54b98b910160405180910390a15050565b61024c61056b565b6102566000610598565b565b61026e62aa36a76001600160a01b0383166101e7565b50565b61027961056b565b60405163ca5eb5e160e01b81526001600160a01b0382811660048301527f0000000000000000000000000000000000000000000000000000000000000000169063ca5eb5e190602401600060405180830381600087803b1580156102dc57600080fd5b505af11580156102f0573d6000803e3d6000fd5b5050505050565b604080516020808201835260008083528351600180825281860190955292939092918281019080368337019050509050735a16552f59ea34e44ec81e58b3817833e9fd54368160008151811061034f5761034f610b1a565b6001600160a01b0392909216602092830291909101909101526040805160018082528183019092526000918160200160208202803683370190505090506000816000815181106103a1576103a1610b1a565b6020908102919091010152604080516001808252818301909252600091816020015b60608152602001906001900390816103c357905050905060405180604001604052806015815260200174736574537570706c794361702875696e743235362960581b8152508160008151811061041b5761041b610b1a565b6020908102919091010152604080516001808252818301909252600091816020015b606081526020019060019003908161043d5790505060408051686c6b935b8bbd40000060208201819052929350016040516020818303038152906040528260008151811061048d5761048d610b1a565b602002602001018190525060006040518060600160405280602d8152602001610e79602d91399050600086868686856040516020016104d0959493929190610c16565b604051602081830303815290604052905061051f62aa36a7826040516020016104f99190610cb6565b60408051601f1981840301815282820190915260008083526020830152908b90336105e8565b50505050505050505050565b61053361056b565b6001600160a01b03811661056257604051631e4fbdf760e01b8152600060048201526024015b60405180910390fd5b61026e81610598565b6000546001600160a01b031633146102565760405163118cdaa760e01b8152336004820152602401610559565b600080546001600160a01b038381166001600160a01b0319831681178455604051919092169283917f8be0079c531659141344cd1fd0a4f28419497f9722a3daafe3b4186f6b6457e09190a35050565b6105f0610a42565b60006105ff84600001516106f3565b60208501519091501561061957610619846020015161071b565b7f00000000000000000000000000000000000000000000000000000000000000006001600160a01b0316632637a450826040518060a001604052808b63ffffffff1681526020016106698c610801565b81526020018a815260200189815260200160008960200151111515815250866040518463ffffffff1660e01b81526004016106a5929190610cc9565b60806040518083038185885af11580156106c3573d6000803e3d6000fd5b50505050506040513d601f19601f820116820180604052508101906106e89190610d79565b979650505050505050565b6000813414610717576040516304fb820960e51b8152346004820152602401610559565b5090565b60007f00000000000000000000000000000000000000000000000000000000000000006001600160a01b031663e4fe1d946040518163ffffffff1660e01b8152600401602060405180830381865afa15801561077b573d6000803e3d6000fd5b505050506040513d601f19601f8201168201806040525081019061079f9190610e1d565b90506001600160a01b0381166107c8576040516329b99a9560e11b815260040160405180910390fd5b6107fd6001600160a01b038216337f000000000000000000000000000000000000000000000000000000000000000085610843565b5050565b63ffffffff81166000908152600160205260408120548061083d5760405163f6ff4fb760e01b815263ffffffff84166004820152602401610559565b92915050565b604080516001600160a01b0385811660248301528416604482015260648082018490528251808303909101815260849091019091526020810180516001600160e01b03166323b872dd60e01b17905261089d9085906108a3565b50505050565b60006108b86001600160a01b0384168361090b565b905080516000141580156108dd5750808060200190518101906108db9190610e3a565b155b1561090657604051635274afe760e01b81526001600160a01b0384166004820152602401610559565b505050565b606061091983836000610920565b9392505050565b6060814710156109455760405163cd78605960e01b8152306004820152602401610559565b600080856001600160a01b031684866040516109619190610e5c565b60006040518083038185875af1925050503d806000811461099e576040519150601f19603f3d011682016040523d82523d6000602084013e6109a3565b606091505b50915091506109b38683836109bd565b9695505050505050565b6060826109d2576109cd82610a19565b610919565b81511580156109e957506001600160a01b0384163b155b15610a1257604051639996b31560e01b81526001600160a01b0385166004820152602401610559565b5080610919565b805115610a295780518082602001fd5b604051630a12f52160e11b815260040160405180910390fd5b604051806060016040528060008019168152602001600067ffffffffffffffff168152602001610a85604051806040016040528060008152602001600081525090565b905290565b803563ffffffff81168114610a9e57600080fd5b919050565b60008060408385031215610ab657600080fd5b610abf83610a8a565b946020939093013593505050565b6001600160a01b038116811461026e57600080fd5b600060208284031215610af457600080fd5b813561091981610acd565b600060208284031215610b1157600080fd5b61091982610a8a565b634e487b7160e01b600052603260045260246000fd5b60008151808452602080850194506020840160005b83811015610b6157815187529582019590820190600101610b45565b509495945050505050565b60005b83811015610b87578181015183820152602001610b6f565b50506000910152565b60008151808452610ba8816020860160208601610b6c565b601f01601f19169290920160200192915050565b60008282518085526020808601955060208260051b8401016020860160005b84811015610c0957601f19868403018952610bf7838351610b90565b98840198925090830190600101610bdb565b5090979650505050505050565b60a0808252865190820181905260009060209060c0840190828a01845b82811015610c585781516001600160a01b031684529284019290840190600101610c33565b5050508381036020850152610c6d8189610b30565b9150508281036040840152610c828187610bbc565b90508281036060840152610c968186610bbc565b90508281036080840152610caa8185610b90565b98975050505050505050565b6020815260006109196020830184610b90565b6040815263ffffffff8351166040820152602083015160608201526000604084015160a06080840152610cff60e0840182610b90565b90506060850151603f198483030160a0850152610d1c8282610b90565b60809690960151151560c08501525050506001600160a01b039190911660209091015290565b6040805190810167ffffffffffffffff81118282101715610d7357634e487b7160e01b600052604160045260246000fd5b60405290565b60008183036080811215610d8c57600080fd5b6040516060810167ffffffffffffffff8282108183111715610dbe57634e487b7160e01b600052604160045260246000fd5b8160405285518352602086015191508082168214610ddb57600080fd5b5060208201526040603f1983011215610df357600080fd5b610dfb610d42565b6040858101518252606090950151602082015293810193909352509092915050565b600060208284031215610e2f57600080fd5b815161091981610acd565b600060208284031215610e4c57600080fd5b8151801515811461091957600080fd5b60008251610e6e818460208701610b6c565b919091019291505056fe50726f706f73616c20746f20696e63726561736520737570706c792063617020746f20322062696c6c696f6e2ea26469706673582212208e4f98a9fcd69923f626de7b017df0d69a2497856321bdbb9cdf03c5e31d3f0a64736f6c63430008160033",
  "devdoc": {
    "errors": {
      "AddressEmptyCode(address)": [
        {
          "details": "There's no code at `target` (it is not a contract)."
        }
      ],
      "AddressInsufficientBalance(address)": [
        {
          "details": "The ETH balance of the account is not enough to perform the operation."
        }
      ],
      "FailedInnerCall()": [
        {
          "details": "A call to an address target failed. The target may have reverted."
        }
      ],
      "OwnableInvalidOwner(address)": [
        {
          "details": "The owner is not a valid owner account. (eg. `address(0)`)"
        }
      ],
      "OwnableUnauthorizedAccount(address)": [
        {
          "details": "The caller account is not authorized to perform an operation."
        }
      ],
      "SafeERC20FailedOperation(address)": [
        {
          "details": "An operation with an ERC20 token failed."
        }
      ]
    },
    "kind": "dev",
    "methods": {
      "oAppVersion()": {
        "details": "Providing 0 as the default for OAppReceiver version. Indicates that the OAppReceiver is not implemented. ie. this is a SEND only OApp.If the OApp uses both OAppSender and OAppReceiver, then this needs to be override returning the correct versions",
        "returns": {
          "receiverVersion": "The version of the OAppReceiver.sol contract.",
          "senderVersion": "The version of the OAppSender.sol contract."
        }
      },
      "owner()": {
        "details": "Returns the address of the current owner."
      },
      "renounceOwnership()": {
        "details": "Leaves the contract without owner. It will not be possible to call `onlyOwner` functions. Can only be called by the current owner. NOTE: Renouncing ownership will leave the contract without an owner, thereby disabling any functionality that is only available to the owner."
      },
      "setDelegate(address)": {
        "details": "Only the owner/admin of the OApp can call this function.Provides the ability for a delegate to set configs, on behalf of the OApp, directly on the Endpoint contract.",
        "params": {
          "_delegate": "The address of the delegate to be set."
        }
      },
      "setPeer(uint32,bytes32)": {
        "details": "Only the owner/admin of the OApp can call this function.Indicates that the peer is trusted to send LayerZero messages to this OApp.Set this to bytes32(0) to remove the peer address.Peer is a bytes32 to accommodate non-evm chains.",
        "params": {
          "_eid": "The endpoint ID.",
          "_peer": "The address of the peer to be associated with the corresponding endpoint."
        }
      },
      "transferOwnership(address)": {
        "details": "Transfers ownership of the contract to a new account (`newOwner`). Can only be called by the current owner."
      }
    },
    "version": 1
  },
  "userdoc": {
    "kind": "user",
    "methods": {
      "endpoint()": {
        "notice": "Retrieves the LayerZero endpoint associated with the OApp."
      },
      "oAppVersion()": {
        "notice": "Retrieves the OApp version information."
      },
      "peers(uint32)": {
        "notice": "Retrieves the peer (OApp) associated with a corresponding endpoint."
      },
      "setDelegate(address)": {
        "notice": "Sets the delegate address for the OApp."
      },
      "setPeer(uint32,bytes32)": {
        "notice": "Sets the peer address (OApp instance) for a corresponding endpoint."
      }
    },
    "version": 1
  },
  "storageLayout": {
    "storage": [
      {
        "astId": 1058,
        "contract": "contracts/LZeroIncreaseSupplyCaps.sol:LZeroIncreaseSupplyCaps",
        "label": "_owner",
        "offset": 0,
        "slot": "0",
        "type": "t_address"
      },
      {
        "astId": 18,
        "contract": "contracts/LZeroIncreaseSupplyCaps.sol:LZeroIncreaseSupplyCaps",
        "label": "peers",
        "offset": 0,
        "slot": "1",
        "type": "t_mapping(t_uint32,t_bytes32)"
      }
    ],
    "types": {
      "t_address": {
        "encoding": "inplace",
        "label": "address",
        "numberOfBytes": "20"
      },
      "t_bytes32": {
        "encoding": "inplace",
        "label": "bytes32",
        "numberOfBytes": "32"
      },
      "t_mapping(t_uint32,t_bytes32)": {
        "encoding": "mapping",
        "key": "t_uint32",
        "label": "mapping(uint32 => bytes32)",
        "numberOfBytes": "32",
        "value": "t_bytes32"
      },
      "t_uint32": {
        "encoding": "inplace",
        "label": "uint32",
        "numberOfBytes": "4"
      }
    }
  }
}