{
  "address": "0x90Daa01277e6d0776294d27b3292516E00753d11",
  "abi": [
    {
      "inputs": [
        {
          "internalType": "uint256",
          "name": "message_id",
          "type": "uint256"
        }
      ],
      "name": "increaseSupplyCap",
      "outputs": [],
      "stateMutability": "payable",
      "type": "function"
    }
  ],
  "transactionHash": "0x7d23015f1770d448d5d0115468edc50246c60efe238cafccaac6516597a688d8",
  "args": [],
  "numDeployments": 3,
  "solcInputHash": "6099287ae24e1ea264d203067d0594ee",
  "bytecode": "0x608060405234801561001057600080fd5b50610567806100206000396000f3fe60806040526004361061001e5760003560e01c8063c6ee331614610023575b600080fd5b6100366100313660046102c5565b610038565b005b60408051600080825260016020808401828152606085018652939492939285019080368337019050509050735a16552f59ea34e44ec81e58b3817833e9fd54368160008151811061008b5761008b6102de565b6001600160a01b0392909216602092830291909101909101526040805160018082528183019092526000918160200160208202803683370190505090506000816000815181106100dd576100dd6102de565b6020908102919091010152604080516001808252818301909252600091816020015b60608152602001906001900390816100ff57905050905060405180604001604052806015815260200174736574537570706c794361702875696e743235362960581b81525081600081518110610157576101576102de565b6020908102919091010152604080516001808252818301909252600091816020015b60608152602001906001900390816101795790505060408051686c6b935b8bbd4000006020820181905292935001604051602081830303815290604052826000815181106101c9576101c96102de565b602002602001018190525060006040518060600160405280602d8152602001610505602d913990506000868686868560405160200161020c95949392919061041d565b60408051808303601f190181529190529050733c5154a193d6e2955650f9305c8d80c18c814a6860008163fa31de013462aa36a773faa578f73c0e7c909fbaf17c530d64200563cafa876040518563ffffffff1660e01b8152600401610274939291906104bd565b60206040518083038185885af1158015610292573d6000803e3d6000fd5b50505050506040513d601f19601f820116820180604052508101906102b791906104eb565b505050505050505050505050565b6000602082840312156102d757600080fd5b5035919050565b634e487b7160e01b600052603260045260246000fd5b60008151808452602080850194506020840160005b8381101561032557815187529582019590820190600101610309565b509495945050505050565b6000815180845260005b818110156103565760208185018101518683018201520161033a565b506000602082860101526020601f19601f83011685010191505092915050565b60008282518085526020808601955060208260051b8401016020860160005b848110156103c357601f198684030189526103b1838351610330565b98840198925090830190600101610395565b5090979650505050505050565b60008282518085526020808601955060208260051b8401016020860160005b848110156103c357601f1986840301895261040b838351610330565b988401989250908301906001016103ef565b60a0808252865190820181905260009060209060c0840190828a01845b8281101561045f5781516001600160a01b03168452928401929084019060010161043a565b505050838103602085015261047481896102f4565b91505082810360408401526104898187610376565b9050828103606084015261049d81866103d0565b905082810360808401526104b18185610330565b98975050505050505050565b63ffffffff841681528260208201526060604082015260006104e26060830184610330565b95945050505050565b6000602082840312156104fd57600080fd5b505191905056fe50726f706f73616c20746f20696e63726561736520737570706c792063617020746f20322062696c6c696f6e2ea2646970667358221220b937998324a18da7f164b0fc3bef136e0bd59a1239a8d0caefde2b0f950f722464736f6c63430008160033",
  "devdoc": {
    "kind": "dev",
    "methods": {},
    "version": 1
  },
  "userdoc": {
    "kind": "user",
    "methods": {},
    "version": 1
  },
  "storageLayout": {
    "storage": [],
    "types": null
  }
}